:020000040800F2
:1000000000280020A1110008B50F0008BB0F000850
:10001000C10F0008C70F0008CD0F00080000000046
:10002000000000000000000000000000D30F0008E6
:10003000DF0F000800000000EB0F0008F70F0008BA
:10004000E9110008E9110008E9110008E9110008A8
:10005000E9110008E9110008E9110008E911000898
:10006000E9110008E9110008E9110008E911000888
:10007000E9110008E9110008E9110008E911000878
:10008000E9110008E9110008E9110008E911000868
:10009000E9110008E9110008E9110008E911000858
:1000A000E9110008E9110008E9110008E911000848
:1000B00005100008E911000800000000E91100081F
:1000C000E91100080000000000000000E91100082C
:1000D00000000000E9110008E9110008000000001C
:1000E000E9110008E9110008E9110008000000000A
:1000F0000000000000000000000000000000000000
:0C01000000000000000000005FF808F1A3
:10010C0010B5054C237833B9044B13B10448AFF345
:10011C0000800123237010BD180000200000000097
:10012C001428000808B5034B1BB103490348AFF36F
:10013C00008008BD000000001C00002014280008EE
:10014C0080B582B000AF78607B68002B23D1002291
:10015C000121C24801F02EFB00220221BF4801F010
:10016C0029FB00220421BD4801F024FB00220821B8
:10017C00BA4801F01FFB00221021B84801F01AFB0D
:10018C0000222021B54801F015FB01224021B34883
:10019C0001F010FB5DE17B68012B23D101220121D1
:1001AC00AE4801F007FB00220221AC4801F002FB33
:1001BC0000220421A94801F0FDFA01220821A748D8
:1001CC0001F0F8FA01221021A44801F0F3FA0122FF
:1001DC002021A24801F0EEFA012240219F4801F0B3
:1001EC00E9FA36E17B68022B23D1002201219B48DE
:1001FC0001F0E0FA00220221984801F0DBFA01221A
:10020C000421964801F0D6FA00220821934801F007
:10021C00D1FA00221021914801F0CCFA01222021C0
:10022C008E4801F0C7FA002240218C4801F0C2FA36
:10023C000FE17B68032B23D100220121874801F0B9
:10024C00B9FA00220221854801F0B4FA00220421F7
:10025C00824801F0AFFA00220821804801F0AAFA86
:10026C00012210217D4801F0A5FA012220217B48B2
:10027C0001F0A0FA00224021784801F09BFAE8E056
:10028C007B68042B23D101220121744801F092FADE
:10029C0000220221714801F08DFA002204216F48DE
:1002AC0001F088FA012208216C4801F083FA01223E
:1002BC0010216A4801F07EFA00222021674801F0E3
:1002CC0079FA00224021654801F074FAC1E07B689C
:1002DC00052B23D100220121604801F06BFA012289
:1002EC0002215E4801F066FA002204215B4801F00D
:1002FC0061FA00220821594801F05CFA0122102110
:10030C00564801F057FA00222021544801F052FAC5
:10031C0000224021514801F04DFA9AE07B68062BEF
:10032C0023D1002201214D4801F044FA012202217F
:10033C004A4801F03FFA00220421484801F03AFAF9
:10034C0000220821454801F035FA002210214348CB
:10035C0001F030FA00222021404801F02BFA002253
:10036C0040213E4801F026FA73E07B68072B23D12D
:10037C0000220121394801F01DFA002202213748E0
:10038C0001F018FA00220421344801F013FA01227A
:10039C000821324801F00EFA012210212F4801F0F9
:1003AC0009FA012220212D4801F004FA01224021F2
:1003BC002A4801F0FFF94CE07B68082B23D100227E
:1003CC000121264801F0F6F900220221234801F010
:1003DC00F1F900220421214801F0ECF90022082156
:1003EC001E4801F0E7F9002210211C4801F0E2F947
:1003FC0000222021194801F0DDF900224021174884
:10040C0001F0D8F925E07B68092B22D100220121CB
:10041C00124801F0CFF900220221104801F0CAF96C
:10042C00002204210D4801F0C5F9002208210B48D7
:10043C0001F0C0F901221021084801F0BBF900229B
:10044C002021064801F0B6F900224021034801F0B2
:10045C00B1F900BF0837BD4680BD00BF000C01409C
:10046C0080B582B000AF78607B68032B7AD801A28C
:10047C0052F823F091040008C90400080105000893
:10048C003905000800224021394801F093F9012276
:10049C008021374801F08EF901224FF480713448E5
:1004AC0001F088F901224FF40071314801F082F912
:1004BC00304B1B681846FFF743FE54E001224021E5
:1004CC002B4801F077F900228021294801F072F9BC
:1004DC0001224FF48071264801F06CF901224FF48F
:1004EC000071234801F066F9224B5B681846FFF750
:1004FC0027FE38E0012240211D4801F05BF9012262
:10050C0080211B4801F056F900224FF480711848E5
:10051C0001F050F901224FF40071154801F04AF92D
:10052C00144B9B681846FFF70BFE1CE00122402180
:10053C000F4801F03FF9012280210D4801F03AF9F2
:10054C0001224FF480710A4801F034F900224FF473
:10055C000071074801F02EF9064BDB681846FFF7CF
:10056C00EFFD00E000BF00BF0837BD4680BD00BFF7
:10057C00000801404400002080B483B000AF002389
:10058C007B602FE01C4A7B6813441B78DB09DBB2D1
:10059C003B603B68012B17D1174A7B6813441B78CF
:1005AC005B00D9B2144A7B6813440A461A70124A8B
:1005BC007B6813441B7843F00103D9B20E4A7B6865
:1005CC0013440A461A700AE00B4A7B6813441B78E2
:1005DC005B00D9B2084A7B6813440A461A707B68E0
:1005EC0001337B607B68072BCCDD00BF00BF0C3771
:1005FC00BD4680BC704700BF0000002080B483B0B3
:10060C0000AF786039607B68092B06DC244B002234
:10061C009A60234A7B68D36019E07B68092B16DD4E
:10062C007B68204A82FB03129210DB17D31A1C4AF8
:10063C00936079681B4B83FB01239A10CB17D21A5A
:10064C0013469B0013445B00CA1A154BDA603B68D7
:10065C00092B06DC124B00221A60114A3B685360CE
:10066C0019E03B68092B16DD3B680E4A82FB03122E
:10067C009210DB17D31A0A4A13603968094B83FBB3
:10068C0001239A10CB17D21A13469B0013445B001C
:10069C00CA1A034B5A6000BF0C37BD4680BC70476A
:1006AC00440000206766666680B586B000AF0346DE
:1006BC00FB71FB79FB7500233B61A3E0FB7DDB0940
:1006CC00FB733B69072B00F2978001A252F823F0D1
:1006DC00FD0600081B070008390700085B07000827
:1006EC007D0700089F070008C1070008E307000802
:1006FC00FB7B012B05D100220421474801F05AF85D
:10070C007AE001220421444801F054F874E0FB7BA8
:10071C00012B05D1002208213F4801F04BF86BE07A
:10072C00012208213C4801F045F865E0FB7B012BD8
:10073C0006D100224FF48061374801F03BF85BE0B2
:10074C0001224FF48061344801F034F854E0FB7B13
:10075C00012B06D100224FF400612F4801F02AF83A
:10076C004AE001224FF400612B4801F023F843E0EA
:10077C00FB7B012B06D100224FF48051264801F05F
:10078C0019F839E001224FF48051234801F012F896
:10079C0032E0FB7B012B06D100224FF400511E48A6
:1007AC0001F008F828E001224FF400511A4801F03A
:1007BC0001F821E0FB7B012B06D100224FF4804194
:1007CC00154800F0F7FF17E001224FF48041124862
:1007DC0000F0F0FF10E0FB7B012B06D100224FF460
:1007EC0000410D4800F0E6FF05E001224FF4004106
:1007FC00094800F0DFFF00BFFB7D5B00FB753B6928
:10080C0001333B613B69072B7FF758AF00BF00BF3B
:10081C001837BD4680BD00BF0008014080B582B0CE
:10082C0000AF78607B68072B00F2D88101A252F8E8
:10083C0023F000BF61080008D10800084109000836
:10084C00B1090008210A0008910A0008010B0008F0
:10085C00790B000800224FF48071C24800F0AAFF07
:10086C0001224FF40071BF4800F0A4FF01224FF4A5
:10087C008061BC4800F09EFF01224FF40061B94832
:10088C0000F098FF01224FF48051B64800F092FF1F
:10089C0001224FF40051B34800F08CFF01224FF4B9
:1008AC008041B04800F086FF01224FF40041AD4872
:1008BC0000F080FFAC4A7B6813441B781846FFF7A6
:1008CC00F3FE8BE101224FF48071A64800F072FF19
:1008DC0000224FF40071A34800F06CFF01224FF48A
:1008EC008061A04800F066FF01224FF400619D4832
:1008FC0000F060FF01224FF480519A4800F05AFF3B
:10090C0001224FF40051974800F054FF01224FF49C
:10091C008041944800F04EFF01224FF40041914871
:10092C0000F048FF904A7B6813441B781846FFF789
:10093C00BBFE53E101224FF480718A4800F03AFF6C
:10094C0001224FF40071874800F034FF00224FF46D
:10095C008061844800F02EFF01224FF40061814831
:10096C0000F028FF01224FF480517E4800F022FF56
:10097C0001224FF400517B4800F01CFF01224FF480
:10098C008041784800F016FF01224FF40041754871
:10099C0000F010FF744A7B6813441B781846FFF76D
:1009AC0083FE1BE101224FF480716E4800F002FFC0
:1009BC0001224FF400716B4800F0FCFE01224FF451
:1009CC008061684800F0F6FE00224FF40061654833
:1009DC0000F0F0FE01224FF48051624800F0EAFE74
:1009EC0001224FF400515F4800F0E4FE01224FF465
:1009FC0080415C4800F0DEFE01224FF40041594872
:100A0C0000F0D8FE584A7B6813441B781846FFF751
:100A1C004BFEE3E001224FF48071524800F0CAFE15
:100A2C0001224FF400714F4800F0C4FE01224FF434
:100A3C0080614C4800F0BEFE01224FF40061494831
:100A4C0000F0B8FE00224FF48051464800F0B2FE90
:100A5C0001224FF40051434800F0ACFE01224FF448
:100A6C008041404800F0A6FE01224FF400413D4871
:100A7C0000F0A0FE3C4A7B6813441B781846FFF735
:100A8C0013FEABE001224FF48071364800F092FE69
:100A9C0001224FF40071334800F08CFE01224FF418
:100AAC008061304800F086FE01224FF400612D4831
:100ABC0000F080FE01224FF480512A4800F07AFEAB
:100ACC0000224FF40051274800F074FE01224FF42D
:100ADC008041244800F06EFE01224FF40041214871
:100AEC0000F068FE204A7B6813441B781846FFF719
:100AFC00DBFD73E001224FF480711A4800F05AFEBE
:100B0C0001224FF40071174800F054FE01224FF4FB
:100B1C008061144800F04EFE01224FF40061114830
:100B2C0000F048FE01224FF480510E4800F042FEC6
:100B3C0001224FF400510B4800F03CFE00224FF410
:100B4C008041084800F036FE01224FF40041054870
:100B5C0000F030FE044A7B6813441B781846FFF7FC
:100B6C00A3FD3BE0000C01400000002001224FF4EB
:100B7C0080711C4800F01EFE01224FF400711948D0
:100B8C0000F018FE01224FF48061164800F012FEAE
:100B9C0001224FF40061134800F00CFE01224FF4C7
:100BAC008051104800F006FE01224FF400510D4810
:100BBC0000F000FE01224FF480410A4800F0FAFDDB
:100BCC0000224FF40041074800F0F4FD064A7B6810
:100BDC0013441B781846FFF767FD00BF00BF0837AA
:100BEC00BD4680BD000C01400000002080B58AB0DD
:100BFC0000AF00F0F5FA00F093F800F019F900F0EE
:100C0C00CBF8414801F040FA09237B623B233B625D
:100C1C003223FB61796A386AFFF7F0FC4FF47A7083
:100C2C0000F0FAF94FF4FA7000F010FAFA2000F024
:100C3C0027FA0A2000F03EFA4FF47A733B614FF426
:100C4C00FA73FB60FA23BB600023BB610A237B6051
:100C5C0000237B612D4B1B68012B22D1386900F0DE
:100C6C00DBF920212A4800F0BDFDFB690133FB6153
:100C7C00FB693B2B04DD0023FB613B6A01333B62C8
:100C8C003B6A3B2B04DD00233B627B6A01337B62B6
:100C9C007B6A172B01DD00237B62796A386AFFF7C8
:100CAC00ADFC1C4B1B68012B06D1F86800F0CEF98B
:100CBC001021174800F096FD174B1B68012B0DD126
:100CCC00B86800F0DDF9BB695A1CBA611846FFF729
:100CDC00C7FBBB69032B01DD0023BB610F4B1B68FA
:100CEC00012BB7D1786800F0E5F97B695A1C7A6161
:100CFC001846FFF793FD7B69072BABDD00237B6167
:100D0C00FFF73AFCA6E700BF540000203400002097
:100D1C0000080140380000203C000020400000206A
:100D2C0080B590B000AF07F11803282200211846B7
:100D3C0001F062FD3B1D00221A605A609A60DA6075
:100D4C001A610223BB610123BB621023FB620023E7
:100D5C007B6307F11803184600F05EFD0346002B79
:100D6C0001D000F0C5F80F237B600023BB6000238B
:100D7C00FB6000233B6100237B613B1D0021184677
:100D8C0000F0CAFF0346002B01D000F0B1F800BF01
:100D9C004037BD4680BD000080B586B000AF07F17E
:100DAC00080300221A605A609A60DA603B460022FF
:100DBC001A605A601D4B4FF080421A601B4B41F673
:100DCC003F725A60194B00229A60184B0922DA6064
:100DDC00164B00221A61154B00229A61134801F040
:100DEC0003F90346002B01D000F082F84FF4805336
:100DFC00BB6007F1080319460C4801F099FA034649
:100E0C00002B01D000F074F800233B6000237B60C2
:100E1C003B461946054801F061FC0346002B01D006
:100E2C0000F066F800BF1837BD4680BD54000020A6
:100E3C0080B586B000AF07F1080300221A605A6033
:100E4C009A60DA60224B9B69214A43F00403936158
:100E5C001F4B9B6903F004037B607B681C4B9B69F5
:100E6C001B4A43F008039361194B9B6903F0080379
:100E7C003B603B6800224FF6FC71164800F09AFC70
:100E8C0000224FF67F71144800F094FC4FF6FC736F
:100E9C00BB600123FB6000233B6102237B6107F1F4
:100EAC00080319460B4800F00BFB4FF67F73BB6031
:100EBC000123FB6000233B6102237B6107F10803E4
:100ECC001946054800F0FCFA00BF1837BD4680BD36
:100EDC000010024000080140000C014080B582B0B7
:100EEC0000AF786000F000F900BF0837BD4680BD48
:100EFC0080B400AF72B600BFFEE7000080B485B0CE
:100F0C0000AF154B9B69144A43F001039361124BDC
:100F1C009B6903F00103BB60BB680F4BDB690E4A96
:100F2C0043F08053D3610C4BDB6903F080537B603F
:100F3C007B680A4B5B68FB60FB6823F0E063FB603B
:100F4C00FB6843F08063FB60044AFB68536000BF9E
:100F5C001437BD4680BC70470010024000000140B1
:100F6C0080B584B000AF78607B681B68B3F1804FAC
:100F7C0013D10C4BDB690B4A43F00103D361094BD2
:100F8C00DB6903F00103FB60FB68002200211C20DD
:100F9C0000F05FFA1C2000F078FA00BF1037BD4655
:100FAC0080BD00BF0010024080B400AFFEE780B4EB
:100FBC0000AFFEE780B400AFFEE780B400AFFEE701
:100FCC0080B400AFFEE780B400AF00BFBD4680BC6C
:100FDC00704780B400AF00BFBD4680BC704780B482
:100FEC0000AF00BFBD4680BC704780B500AF00F0BD
:100FFC003DF900BF80BD000080B500AF024801F094
:10100C008FF800BF80BD00BF5400002080B400AF3B
:10101C0000BFBD4680BC704780B483B000AF786021
:10102C00074B1B687A6892FBF3F3064A1360064B76
:10103C0000221A6000BF0C37BD4680BC704700BF51
:10104C000C000020A80000203400002080B483B0E5
:10105C0000AF7860074B1B687A6892FBF3F3064A83
:10106C001360064B00221A6000BF0C37BD4680BCD3
:10107C00704700BF0C0000209C00002038000020AE
:10108C0080B483B000AF7860074B1B687A6892FB22
:10109C00F3F3064A1360064B00221A6000BF0C37AC
:1010AC00BD4680BC704700BF0C000020A40000208F
:1010BC003C00002080B483B000AF7860074B1B6805
:1010CC007A6892FBF3F3064A1360064B00221A600F
:1010DC0000BF0C37BD4680BC704700BF0C00002021
:1010EC00A00000204000002080B400AF214B1B6802
:1010FC00002B0BDD1F4B1B68013B1E4A13601D4B65
:10110C001B68002B02DC1C4B01221A601B4B1B685A
:10111C00002B0BDD194B1B68013B184A1360174B56
:10112C001B68002B02DC164B01221A60154B1B6846
:10113C00002B0BDD134B1B68013B124A1360114B48
:10114C001B68002B02DC104B01221A600F4B1B6832
:10115C00002B0BDD0D4B1B68013B0C4A13600B4B3A
:10116C001B68002B02DC0A4B01221A6000BFBD4633
:10117C0080BC7047A8000020340000209C00002098
:10118C0038000020A40000203C000020A00000201B
:10119C00400000200C480D490D4A002302E0D458B1
:1011AC00C4500433C4188C42F9D30A4A0A4C0023A5
:1011BC0001E013600432A242FBD3FFF727FF01F0DA
:1011CC00F7FAFFF713FD704700000020180000200D
:1011DC005428000818000020B0000020FEE7000092
:1011EC0080B500AF084B1B68074A43F0100313602F
:1011FC00032000F023F90F2000F008F8FFF77EFE23
:10120C000023184680BD00BF0020024080B582B08C
:10121C0000AF7860124B1A68124B1B7819464FF4CA
:10122C007A73B3FBF1F3B2FBF3F3184600F03BF91E
:10123C000346002B01D001230EE07B680F2B0AD84C
:10124C00002279684FF0FF3000F003F9064A7B6802
:10125C001360002300E0012318460837BD4680BD0B
:10126C0008000020140000201000002080B400AF03
:10127C00054B1B781A46054B1B681344034A136035
:10128C0000BFBD4680BC704714000020AC0000209D
:10129C0080B400AF024B1B681846BD4680BC70473B
:1012AC00AC00002080B485B000AF78607B6803F0A0
:1012BC000703FB600C4BDB68BB60BA684FF6FF039F
:1012CC001340BB60FB681A02BB68134343F0BF6357
:1012DC0043F40033BB60044ABB68D36000BF1437CF
:1012EC00BD4680BC704700BF00ED00E080B400AF8D
:1012FC00044BDB681B0A03F007031846BD4680BC91
:10130C00704700BF00ED00E080B483B000AF03462F
:10131C00FB7197F90730002B0BDBFB7903F01F02F5
:10132C00064997F907305B09012000FA02F241F8EF
:10133C00232000BF0C37BD4680BC704700E100E0A5
:10134C0080B483B000AF03463960FB7197F9073066
:10135C00002B0ADB3B68DAB20C4997F90730120113
:10136C00D2B20B4483F800230AE03B68DAB2084996
:10137C00FB7903F00F03043B1201D2B20B441A7633
:10138C0000BF0C37BD4680BC704700BF00E100E0D9
:10139C0000ED00E080B489B000AFF860B9607A600D
:1013AC00FB6803F00703FB61FB69C3F10703042B24
:1013BC0028BF0423BB61FB690433062B02D9FB69EC
:1013CC00033B00E000237B614FF0FF32BB6902FA64
:1013DC0003F3DA43BB681A407B699A404FF0FF3144
:1013EC007B6901FA03F3D9437B680B40134318461E
:1013FC002437BD4680BC704780B582B000AF7860A2
:10140C007B68013BB3F1807F01D301230FE00A4AD3
:10141C007B68013B53600F214FF0FF30FFF790FFCB
:10142C00054B00229A60044B07221A6000231846D1
:10143C000837BD4680BD00BF10E000E080B582B02B
:10144C0000AF78607868FFF72DFF00BF0837BD4606
:10145C0080BD80B586B000AF0346B9607A60FB737F
:10146C0000237B61FFF742FF78617A68B96878697D
:10147C00FFF790FF024697F90F3011461846FFF719
:10148C005FFF00BF1837BD4680BD80B582B000AF8E
:10149C000346FB7197F907301846FFF735FF00BF7D
:1014AC000837BD4680BD80B582B000AF78607868E3
:1014BC00FFF7A2FF034618460837BD4680BD000063
:1014CC0080B48BB000AF7860396000237B6200235E
:1014DC003B6248E101227B6A02FA03F3FB613B6841
:1014EC001B68FA691340BB61BA69FB699A4240F008
:1014FC0037813B685B68A34A93425ED0A14A934212
:10150C0075D8A14A934258D09F4A93426FD89F4AAC
:10151C00934252D09D4A934269D89D4A93424CD0F3
:10152C009B4A934263D89B4A934246D0994A934232
:10153C005DD8122B2AD8122B59D801A252F823F0BD
:10154C00C7150008A1150008B3150008F51500080B
:10155C00FB150008FB150008FB150008FB1500081F
:10156C00FB150008FB150008FB150008FB1500080F
:10157C00FB150008FB150008FB150008FB150008FF
:10158C00FB150008A9150008BD150008824A9342F6
:10159C0013D02CE03B68DB683B6229E03B68DB68DE
:1015AC0004333B6224E03B68DB6808333B621FE09A
:1015BC003B68DB680C333B621AE03B689B68002B92
:1015CC0002D104233B6213E03B689B68012B05D1DD
:1015DC0008233B627B68FA691A6109E008233B62C5
:1015EC007B68FA695A6103E000233B6200E000BFAC
:1015FC00BB69FF2B01D87B6801E07B6804337B61FE
:10160C00BB69FF2B02D87B6A9B0002E07B6A083B1C
:10161C009B003B617B691A680F213B6901FA03F35C
:10162C00DB431A40396A3B6901FA03F31A437B69BD
:10163C001A603B685B6803F08053002B00F09080CD
:10164C00564B9B69554A43F001039361534B9B697D
:10165C0003F00103BB60BB68514A7B6A9B080233F1
:10166C0052F82330FB607B6A03F003039B000F22CC
:10167C0002FA03F3DB43FA681340FB607B68494AC8
:10168C0093420DD07B68484A934207D07B68474A07
:10169C00934201D1022304E0032302E0012300E082
:1016AC0000237A6A02F0030292009340FA68134313
:1016BC00FB603B497B6A9B080233FA6841F82320A4
:1016CC003B685B6803F48033002B06D0384B1A68F8
:1016DC003749BB6913430B6006E0354B1A68BB698D
:1016EC00DB43334913400B603B685B6803F4003306
:1016FC00002B06D02E4B5A682D49BB6913434B6007
:10170C0006E02B4B5A68BB69DB43294913404B60FD
:10171C003B685B6803F48013002B06D0244B9A685B
:10172C002349BB6913438B6006E0214B9A68BB6964
:10173C00DB431F4913408B603B685B6803F4001369
:10174C00002B06D01A4BDA681949BB691343CB60DE
:10175C0006E0174BDA68BB69DB4315491340CB60D5
:10176C007B6A01337B623B681A687B6A22FA03F35B
:10177C00002B7FF4AFAE00BF00BF2C37BD4680BC42
:10178C00704700BF00003210000031100000221022
:10179C000000211000001210000011100010024077
:1017AC000000014000080140000C01400010014005
:1017BC000004014080B483B000AF78600B467B809E
:1017CC0013467B707B78002B03D07A887B681A6178
:1017DC0003E07B881A047B681A6100BF0C37BD4696
:1017EC0080BC704780B485B000AF78600B467B80BE
:1017FC007B68DB68FB607A88FB6813401A04FB6823
:10180C00D9437B880B401A437B681A6100BF14379D
:10181C00BD4680BC7047000080B586B000AF7860D4
:10182C007B68002B01D101236CE27B681B6803F001
:10183C000103002B00F08780924B5B6803F00C03D4
:10184C00042B0CD08F4B5B6803F00C03082B12D1CC
:10185C008C4B5B6803F48033B3F5803F0BD1894B21
:10186C001B6803F40033002B6CD07B685B68002B87
:10187C0068D1012346E27B685B68B3F5803F06D1F3
:10188C00804B1B687F4A43F4803313602EE07B68E7
:10189C005B68002B0CD17B4B1B687A4A23F480339A
:1018AC001360784B1B68774A23F4802313601DE088
:1018BC007B685B68B3F5A02F0CD1724B1B68714A27
:1018CC0043F4802313606F4B1B686E4A43F48033E0
:1018DC0013600BE06B4B1B686A4A23F48033136074
:1018EC00684B1B68674A23F4802313607B685B6832
:1018FC00002B13D0FFF7CCFC386108E0FFF7C8FCD5
:10190C0002463B69D31A642B01D90323FAE15D4BE0
:10191C001B6803F40033002BF0D014E0FFF7B8FC85
:10192C00386108E0FFF7B4FC02463B69D31A642B1C
:10193C0001D90323E6E1534B1B6803F40033002B5E
:10194C00F0D100E000BF7B681B6803F00203002BA2
:10195C0063D04C4B5B6803F00C03002B0BD0494B52
:10196C005B6803F00C03082B1CD1464B5B6803F43B
:10197C008033002B16D1434B1B6803F00203002B62
:10198C0005D07B681B69012B01D00123BAE13D4BCB
:10199C001B6823F0F8027B685B69DB003949134351
:1019AC000B603AE07B681B69002B20D0364B012280
:1019BC001A60FFF76DFC386108E0FFF769FC02461E
:1019CC003B69D31A022B01D903239BE12D4B1B68D6
:1019DC0003F00203002BF0D02A4B1B6823F0F80213
:1019EC007B685B69DB00274913430B6015E0264BD2
:1019FC0000221A60FFF74CFC386108E0FFF748FC46
:101A0C0002463B69D31A022B01D903237AE11D4B01
:101A1C001B6803F00203002BF0D17B681B6803F0FA
:101A2C000803002B3AD07B689B69002B19D0174B0D
:101A3C0001221A60FFF72CFC386108E0FFF728FC44
:101A4C0002463B69D31A022B01D903235AE10D4BF1
:101A5C005B6A03F00203002BF0D0012000F0A6FA21
:101A6C001CE00A4B00221A60FFF712FC38610FE0F1
:101A7C00FFF70EFC02463B69D31A022B08D903234D
:101A8C0040E100BF0010024000004242800442428C
:101A9C009E4B5B6A03F00203002BE9D17B681B6849
:101AAC0003F00403002B00F0A6800023FB75974B7A
:101ABC00DB6903F08053002B0DD1944BDB69934A07
:101ACC0043F08053D361914BDB6903F08053BB60CF
:101ADC00BB680123FB758E4B1B6803F48073002BD2
:101AEC0018D18B4B1B688A4A43F480731360FFF741
:101AFC00CFFB386108E0FFF7CBFB02463B69D31AFA
:101B0C00642B01D90323FDE0814B1B6803F4807324
:101B1C00002BF0D07B68DB68012B06D17B4B1B6A5A
:101B2C007A4A43F0010313622DE07B68DB68002BDB
:101B3C000CD1764B1B6A754A23F001031362734B6D
:101B4C001B6A724A23F0040313621CE07B68DB6897
:101B5C00052B0CD16D4B1B6A6C4A43F004031362CA
:101B6C006A4B1B6A694A43F0010313620BE0674B33
:101B7C001B6A664A23F001031362644B1B6A634AB7
:101B8C0023F0040313627B68DB68002B15D0FFF78E
:101B9C007FFB38610AE0FFF77BFB02463B69D31AF7
:101BAC0041F28832934201D90323ABE0574B1B6AB5
:101BBC0003F00203002BEED014E0FFF769FB386151
:101BCC000AE0FFF765FB02463B69D31A41F2883203
:101BDC00934201D9032395E04C4B1B6A03F002039B
:101BEC00002BEED1FB7D012B05D1484BDB69474A1D
:101BFC0023F08053D3617B68DB69002B00F081807C
:101C0C00424B5B6803F00C03082B61D07B68DB69EB
:101C1C00022B46D13F4B00221A60FFF739FB38618B
:101C2C0008E0FFF735FB02463B69D31A022B01D9BA
:101C3C00032367E0354B1B6803F00073002BF0D1D6
:101C4C007B681B6AB3F5803F08D1304B5B6823F48B
:101C5C0000327B689B682D4913434B602B4B5B68B0
:101C6C0023F474127B68196A7B685B6A0B432749FF
:101C7C0013434B60274B01221A60FFF709FB3861B5
:101C8C0008E0FFF705FB02463B69D31A022B01D98A
:101C9C00032337E01D4B1B6803F00073002BF0D0BF
:101CAC002FE01C4B00221A60FFF7F2FA386108E0B3
:101CBC00FFF7EEFA02463B69D31A022B01D9032334
:101CCC0020E0124B1B6803F00073002BF0D118E0DE
:101CDC007B68DB69012B01D1012313E00B4B5B68A3
:101CEC00FB60FB6803F480327B681B6A9A4206D166
:101CFC00FB6803F470127B685B6A9A4201D0012383
:101D0C0000E0002318461837BD4680BD0010024085
:101D1C00007000406000424280B584B000AF786033
:101D2C0039607B68002B01D10123D0E06A4B1B6822
:101D3C0003F007033A689A4210D9674B1B6823F0EB
:101D4C00070265493B6813430B60634B1B6803F048
:101D5C0007033A689A4201D00123B8E07B681B68FC
:101D6C0003F00203002B20D07B681B6803F00403F4
:101D7C00002B05D0594B5B68584A43F4E063536021
:101D8C007B681B6803F00803002B05D0534B5B6882
:101D9C00524A43F460535360504B5B6823F0F0029B
:101DAC007B689B684D4913434B607B681B6803F051
:101DBC000103002B40D07B685B68012B07D1474B9C
:101DCC001B6803F40033002B15D101237FE07B68E3
:101DDC005B68022B07D1414B1B6803F00073002B8F
:101DEC0009D1012373E03D4B1B6803F00203002B68
:101DFC0001D101236BE0394B5B6823F003027B6854
:101E0C005B68364913434B60FFF742FAF8600AE00F
:101E1C00FFF73EFA0246FB68D31A41F2883293422E
:101E2C0001D9032353E02D4B5B6803F00C027B6854
:101E3C005B689B009A42EBD1274B1B6803F00703AE
:101E4C003A689A4210D2244B1B6823F007022249AD
:101E5C003B6813430B60204B1B6803F007033A6885
:101E6C009A4201D0012332E07B681B6803F0040323
:101E7C00002B08D0194B5B6823F4E0627B68DB68AD
:101E8C00164913434B607B681B6803F00803002B57
:101E9C0009D0124B5B6823F460527B681B69DB0032
:101EAC000E4913434B6000F021F802460B4B5B6864
:101EBC001B0903F00F030A49CB5C22FA03F3094A0E
:101ECC001360094B1B681846FFF7A0F9002318464E
:101EDC001037BD4680BD00BF0020024000100240FC
:101EEC003C280008080000201000002090B48AB0A4
:101EFC0000AF2A4B3C1D0FCB84E80F0040F20123AE
:101F0C003B800023FB610023BB6100237B62002329
:101F1C007B6100233B62224B5B68FB61FB6903F036
:101F2C000C03042B02D0082B03D02DE01D4B3B627D
:101F3C002DE0FB699B0C03F00F0307F128021344FF
:101F4C0013F8243C7B61FB6903F48033002B13D022
:101F5C00134B5B685B0C03F0010307F1280213447D
:101F6C0013F8283CBB617B690E4A02FB03F2BB6988
:101F7C00B2FBF3F37B6204E07B690B4A02FB03F3D5
:101F8C007B627B6A3B6202E0064B3B6200BF3B6AB2
:101F9C0018462837BD4690BC704700BF2C28000857
:101FAC000010024000127A0000093D0080B485B098
:101FBC0000AF78600A4B1B680A4AA2FB03235B0A3A
:101FCC007A6802FB03F3FB6000BFFB685A1EFA60E1
:101FDC00002BF9D100BF00BF1437BD4680BC704741
:101FEC0008000020D34D621080B582B000AF78603D
:101FFC007B68002B01D1012341E07B6893F83D30D5
:10200C00DBB2002B06D17B68002283F83C20786879
:10201C00FEF7A6FF7B68022283F83D207B681A68D6
:10202C007B6804331946104600F06AFA7B6801227B
:10203C0083F846207B68012283F83E207B680122CE
:10204C0083F83F207B68012283F840207B680122C3
:10205C0083F841207B68012283F842207B680122AF
:10206C0083F843207B68012283F844207B6801229B
:10207C0083F845207B68012283F83D200023184615
:10208C000837BD4680BD000080B485B000AF7860D5
:10209C007B6893F83D30DBB2012B01D0012335E096
:1020AC007B68022283F83D207B681B68DA687B68BA
:1020BC001B6842F00102DA607B681B68164A934287
:1020CC0009D07B681B68B3F1804F04D07B681B6818
:1020DC00124A934211D17B681B689B6803F007037B
:1020EC00FB60FB68062B10D07B681B681A687B684A
:1020FC001B6842F001021A6007E07B681B681A68D3
:10210C007B681B6842F001021A60002318461437E2
:10211C00BD4680BC704700BF002C0140000400404D
:10212C0080B582B000AF78607B681B681B6903F0D8
:10213C000203022B22D17B681B68DB6803F00203CD
:10214C00022B1BD17B681B686FF002021A617B6843
:10215C0001221A777B681B689B6903F00303002B31
:10216C0003D0786800F0B1F905E0786800F0A4F9C4
:10217C00786800F0B3F97B6800221A777B681B68DB
:10218C001B6903F00403042B22D17B681B68DB68FA
:10219C0003F00403042B1BD17B681B686FF0040253
:1021AC001A617B6802221A777B681B689B6903F4AF
:1021BC004073002B03D0786800F087F905E078684D
:1021CC0000F07AF9786800F089F97B6800221A77B8
:1021DC007B681B681B6903F00803082B22D17B6802
:1021EC001B68DB6803F00803082B1BD17B681B689A
:1021FC006FF008021A617B6804221A777B681B68EF
:10220C00DB6903F00303002B03D0786800F05DF961
:10221C0005E0786800F050F9786800F05FF97B68A9
:10222C0000221A777B681B681B6903F01003102BC4
:10223C0022D17B681B68DB6803F01003102B1BD1C9
:10224C007B681B686FF010021A617B6808221A7792
:10225C007B681B68DB6903F44073002B03D0786840
:10226C0000F033F905E0786800F026F9786800F0A2
:10227C0035F97B6800221A777B681B681B6903F0B1
:10228C000103012B0ED17B681B68DB6803F0010393
:10229C00012B07D17B681B686FF001021A6178680B
:1022AC00FEF71CFE7B681B681B6903F08003802B08
:1022BC000ED17B681B68DB6803F08003802B07D191
:1022CC007B681B686FF080021A61786800F067FA0F
:1022DC007B681B681B6903F04003402B0ED17B68A5
:1022EC001B68DB6803F04003402B07D17B681B683D
:1022FC006FF040021A61786800F0F9F87B681B688F
:10230C001B6903F02003202B0ED17B681B68DB6854
:10231C0003F02003202B07D17B681B686FF0200291
:10232C001A61786800F032FA00BF0837BD4680BDEC
:10233C0080B584B000AF786039607B6893F83C302E
:10234C00012B01D10223B3E07B68012283F83C20EE
:10235C007B68022283F83D207B681B689B68FB60CE
:10236C00FB6823F07703FB60FB6823F47F43FB607F
:10237C007B681B68FA689A603B681B68B3F5005F62
:10238C003ED0B3F5005F00F28780B3F5805F00F0BC
:10239C008580B3F5805F7FD8702B1AD0702B7BD8DB
:1023AC00602B50D0602B77D8502B3CD0502B73D84F
:1023BC00402B58D0402B6FD8302B64D0302B6BD89F
:1023CC00202B60D0202B67D8002B5CD0102B5AD040
:1023DC0062E07B6818683B6899683B685A683B68A0
:1023EC00DB6800F05CF97B681B689B68FB60FB6832
:1023FC0043F07703FB607B681B68FA689A604EE0D9
:10240C007B6818683B6899683B685A683B68DB686E
:10241C0000F045F97B681B689A687B681B6842F47E
:10242C0080429A603BE07B6818683B6859683B685F
:10243C00DB681A4600F0BCF87B681B685021184614
:10244C0000F013F92BE07B6818683B6859683B680F
:10245C00DB681A4600F0DAF87B681B6860211846C6
:10246C0000F003F91BE07B6818683B6859683B680F
:10247C00DB681A4600F09CF87B681B684021184604
:10248C0000F0F3F80BE07B681A683B681B68194690
:10249C00104600F0EAF802E000BF00E000BF7B68E5
:1024AC00012283F83D207B68002283F83C20002326
:1024BC0018461037BD4680BD80B483B000AF78603D
:1024CC0000BF0C37BD4680BC704780B483B000AFF2
:1024DC00786000BF0C37BD4680BC704780B483B0B9
:1024EC0000AF786000BF0C37BD4680BC704780B42D
:1024FC0083B000AF786000BF0C37BD4680BC70471E
:10250C0080B485B000AF786039607B681B68FB6075
:10251C007B68254A934207D07B68B3F1804F03D088
:10252C007B68224A934208D1FB6823F07003FB605E
:10253C003B685B68FA681343FB607B681A4A9342FA
:10254C0007D07B68B3F1804F03D07B68174A934266
:10255C0008D1FB6823F44073FB603B68DB68FA68C6
:10256C001343FB60FB6823F080023B685B691343F9
:10257C00FB607B68FA681A603B689A687B68DA6271
:10258C003B681A687B689A627B68074A934203D15E
:10259C003B681A697B681A637B6801225A6100BF29
:1025AC001437BD4680BC7047002C0140000400402D
:1025BC0080B487B000AFF860B9607A60FB681B6AC2
:1025CC007B61FB681B6A23F00102FB681A62FB68E3
:1025DC009B693B613B6923F0F0033B617B681B010A
:1025EC003A6913433B617B6923F00A037B617A6987
:1025FC00BB6813437B61FB683A699A61FB687A6933
:10260C001A6200BF1C37BD4680BC704780B487B0CF
:10261C0000AFF860B9607A60FB681B6A23F01002A7
:10262C00FB681A62FB689B697B61FB681B6A3B61F8
:10263C007B6923F470437B617B681B037A691343CA
:10264C007B613B6923F0A0033B61BB681B013A69CA
:10265C0013433B61FB687A699A61FB683A691A62B9
:10266C0000BF1C37BD4680BC704780B485B000AF3E
:10267C00786039607B689B68FB60FB6823F07003B3
:10268C00FB603A68FB68134343F00703FB607B680D
:10269C00FA689A6000BF1437BD4680BC704780B49E
:1026AC0087B000AFF860B9607A603B60FB689B68EC
:1026BC007B617B6923F47F437B613B681A027B68F7
:1026CC001A43BB6813437A6913437B61FB687A69CD
:1026DC009A6000BF1C37BD4680BC704780B485B083
:1026EC0000AF786039607B6893F83C30012B01D1E6
:1026FC00022341E07B68012283F83C207B680222A4
:10270C0083F83D207B681B685B68FB607B681B68FB
:10271C009B68BB60FB6823F07003FB603B681B6825
:10272C00FA681343FB607B681B68FA685A607B6825
:10273C001B68144A934209D07B681B68B3F1804F25
:10274C0004D07B681B68104A93420CD1BB6823F001
:10275C008003BB603B685B68BA681343BB607B68F3
:10276C001B68BA689A607B68012283F83D207B68FD
:10277C00002283F83C20002318461437BD4680BC49
:10278C00704700BF002C01400004004080B483B0AF
:10279C0000AF786000BF0C37BD4680BC704780B47A
:1027AC0083B000AF786000BF0C37BD4680BC70476B
:1027BC0070B500260C4D0D4C641BA410A64209D11B
:1027CC0000F022F800260A4D0A4C641BA410A64205
:1027DC0005D170BD55F8043B98470136EEE755F826
:1027EC00043B98470136F2E74C2800084C280008B7
:1027FC004C2800085028000803460244934200D19C
:10280C00704703F8011BF9E7F8B500BFF8BC08BC2A
:10281C009E467047F8B500BFF8BC08BC9E46704792
:10282C0002030405060708090A0B0C0D0E0F101005
:10283C000000000000000000010203040607080964
:04284C00310100084E
:042850000D0100086E
:10285400183C66667E7E66660024F4000A0000006A
:0828640010000000010000005B
:04000005080011A13D
:00000001FF
