:020000040800F2
:10000000002800208D170008691500086F150008EA
:10001000751500087B150008811500080000000018
:10002000000000000000000000000000871500082C
:1000300093150008000000009F150008AB1500088C
:10004000D5170008D5170008D5170008D5170008E0
:10005000D5170008D5170008D5170008D5170008D0
:10006000D5170008D5170008D5170008D5170008C0
:10007000D5170008D5170008D5170008D5170008B0
:10008000D5170008D5170008D5170008D5170008A0
:10009000D5170008D5170008D5170008D517000890
:1000A000D5170008D5170008D5170008D517000880
:1000B000B9150008D517000800000000D517000882
:1000C000D51700080000000000000000D517000848
:1000D00000000000D5170008D51700080000000038
:1000E000D5170008D5170008D51700080000000034
:1000F0000000000000000000000000000000000000
:0C01000000000000000000005FF808F1A3
:10010C0010B5054C237833B9044B13B10448AFF345
:10011C0000800123237010BD30000020000000007F
:10012C002C2E000808B5034B1BB103490348AFF351
:10013C00008008BD00000000340000202C2E0008B8
:10014C0090B583B000AF0023FB7149E0FA79FB79DD
:10015C002749895C274AD154FB79274A52F8232036
:10016C00FB79264931F81330FC791946104601F019
:10017C0017FE03461A461E4B1A55FB791C4AD25CD5
:10018C00FB791C49CB5C9A4227D1FB791C4AD25C87
:10019C00FB791749CB5C9A4212D0FA79FB79144956
:1001AC00895C174AD154FB79114AD35C002B14D1CA
:1001BC00FB79144A0021D154134B64221A600CE0D1
:1001CC00114B1B68013B104A13600F4B1B68002B33
:1001DC0003DCFB790A4A0121D154FB790133FB7111
:1001EC00FB79022BB2D900BF00BF0C37BD4690BDC6
:1001FC004C000020500000201000002008000020BF
:10020C0004000020000000209400002080B483B083
:10021C0000AF7860094A7B6813441B78002B06D129
:10022C00064A7B68134401221A70012300E0002364
:10023C0018460C37BD4680BC704700BF000000203C
:10024C0080B582B000AF78607B68002B03D07B68F0
:10025C00012B22D043E000228021234801F0B7FD7E
:10026C0001224FF48071204801F0B1FD00224FF4BF
:10027C0000711D4801F0ABFD01224FF480611A485A
:10028C0001F0A5FD194B1B68184600F093FC174BA9
:10029C009B68184600F01EFE21E0012280211248C6
:1002AC0001F095FD00224FF480710F4801F08FFD95
:1002BC0001224FF400710C4801F089FD00224FF42B
:1002CC008061094801F083FD084B5B68184600F01B
:1002DC0071FC064BDB68184600F0FCFD00BF00BF4C
:1002EC000837BD4680BD00BF0008014098000020C3
:1002FC0080B483B000AF786039607B68184A82FBA9
:10030C0003129210DB17D31A164A13607968144B38
:10031C0083FB01239A10CB17D21A13469B0013446C
:10032C005B00CA1A0F4B5A603B680D4A82FB0312E2
:10033C009210DB17D31A0B4A93603968084B83FB76
:10034C0001239A10CB17D21A13469B0013445B005F
:10035C00CA1A044BDA6000BF0C37BD4680BC70472C
:10036C00676666669800002080B500AF114B0222CC
:10037C001A60114B04221A60104B1B781A46104B52
:10038C001A600E4B9B781A460E4B1A604FF47A701B
:10039C0001F038F90C4B01221A700C4B01221A6037
:1003AC00074B1B68074A126811461846FFF7A0FF57
:1003BC0000BF80BD640000206800002020000020E9
:1003CC00540000205800002053000020880000201A
:1003DC0080B500AF974B1B68022B2AD1002202215B
:1003EC00954801F0F4FC01220421934801F0EFFC44
:1003FC0001220821904801F0EAFC904B1B68002B6D
:10040C0074D18C4B04221A60012202218A4801F01B
:10041C00DEFC01220421884801F0D9FC00220821CD
:10042C00854801F0D4FC864B9B781A46834B1A60A6
:10043C005CE0804B1B68032B2AD1012202217E48F1
:10044C0001F0C5FC002204217B4801F0C0FC012214
:10045C000821794801F0BBFC784B1B68002B45D177
:10046C00744B02221A6000220221734801F0AFFC87
:10047C0001220421704801F0AAFC012208216E48D7
:10048C0001F0A5FC6E4B1B781A466C4B1A602DE0E4
:10049C00684B1B68042B29D101220221664801F00C
:1004AC0096FC01220421644801F091FC00220821F1
:1004BC00614801F08CFC614B1B68002B16D15D4B25
:1004CC0003221A60012202215B4801F080FC002209
:1004DC000421594801F07BFC01220821564801F007
:1004EC0076FC574B5B781A46544B1A60554B1B687D
:1004FC00022B2AD1002210214F4801F068FC012266
:10050C0020214D4801F063FC012240214A4801F0B2
:10051C005EFC4D4B1B68002B74D14A4B04221A60B5
:10052C0001221021444801F052FC012220214248B2
:10053C0001F04DFC002240213F4801F048FC404BAB
:10054C009B781A46404B1A605CE03E4B1B68032BB1
:10055C002AD101221021384801F039FC0022202137
:10056C00354801F034FC01224021334801F02FFCC6
:10057C00354B1B68002B45D1324B02221A600022EE
:10058C0010212D4801F023FC012220212A4801F0E2
:10059C001EFC01224021284801F019FC284B1B7835
:1005AC001A46294B1A602DE0264B1B68042B29D1C7
:1005BC0001221021204801F00AFC012220211E48B2
:1005CC0001F005FC002240211B4801F000FC1E4BF1
:1005DC001B68002B16D11B4B03221A600122102121
:1005EC00154801F0F4FB00222021134801F0EFFB29
:1005FC0001224021104801F0EAFB114B5B781A46AE
:10060C00114B1A60114B1B78012B11D1104B1B682D
:10061C00012B0DD1094B1B68013B084A13600A4B97
:10062C001B68013B084A13604FF47A7000F0EAFF34
:10063C0000BF80BD64000020000801405400002071
:10064C0020000020680000205800002053000020EB
:10065C006C00002080B483B000AF0346FB71FB79C3
:10066C00094AD25C0132D1B2074AD154FB79064A0D
:10067C00D35C632B03D9FB79034A0121D15400BF0E
:10068C000C37BD4680BC70471C00002080B400AF06
:10069C00084B1B780133DAB2064B1A70054B1B78EA
:1006AC00042B02D9034B01221A7000BFBD4680BC3B
:1006BC00704700BF5300002080B483B000AF00230C
:1006CC007B600BE00A4A7B6813441978094A7B6803
:1006DC0013440A461A707B6801337B607B68022BDB
:1006EC00F0DD00BF00BF0C37BD4680BC704700BFBB
:1006FC001C0000202000002080B582B000AF034613
:10070C00FB71374B1B78012B66D0364B1B68012BCA
:10071C0062D1FB79002B1CD10221334801F06FFB15
:10072C001021314801F06BFB012204212E4801F00D
:10073C004EFB012220212C4801F049FB012208210B
:10074C00294801F044FB01224021274801F03FFBDE
:10075C003EE0FB79012B1CD10421234801F04FFB17
:10076C002021214801F04BFB012202211E4801F0FF
:10077C002EFB012210211C4801F029FB012208212B
:10078C00194801F024FB01224021174801F01FFBFE
:10079C001EE0FB79022B1BD10821134801F02FFB23
:1007AC004021114801F02BFB012204210E4801F0DD
:1007BC000EFB012220210C4801F009FB0122022131
:1007CC00094801F004FB01221021074801F0FFFA4F
:1007DC004FF4FA7000F0FAFE00BF0837BD4680BD3A
:1007EC0053000020740000200008014080B500AFC9
:1007FC000020FFF70BFD0346002B07D0FFF746FF49
:10080C00924B00221A60924B01221A60914B1B787A
:10081C00013B032B00F29B8101A252F823F000BF95
:10082C003D0800089108000875090008890A0008AD
:10083C00874B1B68012B1AD1854B00221A60864B03
:10084C0002221A60854B04221A60854B1B781A46CB
:10085C00844B1A60824B9B781A46834B1A607B4BF5
:10086C0000221A604FF47A7000F0CCFE6FE1FFF7B3
:10087C00AFFD7C4B1B687C4A126811461846FFF78B
:10088C0037FD64E1724B1B68012B13D141F28830A8
:10089C0000F0D4FE754B01221A606D4B00221A60D9
:1008AC0001220221724801F092FA012210217048B3
:1008BC0001F08DFA0020FFF71FFF0120FFF7A6FCC7
:1008CC000346002B15D0644B0C221A60634B0C2290
:1008DC001A6041F2883000F0B1FE0020FFF7BAFE3A
:1008EC005C4B1B781A46634B9B7819461046FFF7F6
:1008FC00FFFC0220FFF78AFC0346002B1AD0FFF7FF
:10090C00DBFE544B01221A70504B00221A60544BE0
:10091C001B781A46534B1A60514B9B781A46524B14
:10092C001A604D4B02221A604C4B04221A60484B41
:10093C0001221A60504B1B68012B0BD1464B022233
:10094C001A60464B04221A60424B01221A70404B2B
:10095C0001221A603F4B1B781A46464B1B781946EE
:10096C001046FFF7C5FCF2E0394B1B68012B13D185
:10097C0041F2883000F062FE3C4B01221A60344B8D
:10098C0000221A6001220421394801F020FA0122C8
:10099C002021374801F01BFA0120FFF7ADFE0120A2
:1009AC00FFF734FC0346002B15D02B4B0D221A609D
:1009BC002A4B0D221A6041F2883000F03FFE0120D4
:1009CC00FFF748FE234B1B781A462A4B9B78194697
:1009DC001046FFF78DFC0220FFF718FC0346002B96
:1009EC001AD0FFF769FE1B4B01221A70174B00221D
:1009FC001A601B4B1B781A461A4B1A60184B9B78C3
:100A0C001A46194B1A60144B02221A60134B04221B
:100A1C001A600F4B01221A60174B1B68012B0BD16C
:100A2C000D4B02221A600D4B04221A60094B012255
:100A3C001A70074B01221A60064B1B781A460D4B95
:100A4C005B7819461046FFF753FC80E05C000020F1
:100A5C00600000205300002064000020680000208B
:100A6C0020000020540000205800002074000020BA
:100A7C00000801401C0000207C000020404B1B683B
:100A8C00012B13D141F2883000F0D8FD3D4B0122EF
:100A9C001A603B4B00221A60012208213A4801F0EF
:100AAC0096F901224021384801F091F90220FFF714
:100ABC0023FE0120FFF7AAFB0346002B15D0334B76
:100ACC000E221A60324B0E221A6041F2883000F06E
:100ADC00B5FD0220FFF7BEFD2E4B1B781A462E4BA0
:100AEC009B7819461046FFF703FC0220FFF78EFB9C
:100AFC000346002B1AD0FFF7DFFD264B01221A709C
:100B0C00264B00221A60264B1B781A46254B1A607E
:100B1C00234B9B781A46244B1A601C4B02221A60FA
:100B2C001B4B04221A60164B01221A601F4B1B68C8
:100B3C00012B0BD1154B02221A60154B04221A60A3
:100B4C00144B01221A700E4B01221A6000BF184B75
:100B5C001B68012B12D1114B1B685A1C0F490A60E0
:100B6C001846FFF76DFB0D4B1B68012B02DD0B4B81
:100B7C0000221A604FF4FA7000F07CFD00BF80BDBB
:100B8C006000002074000020000801406400002078
:100B9C0068000020530000201C0000205C00002096
:100BAC002000002054000020580000207C00002071
:100BBC008800002080B582B000AF78607B68002B85
:100BCC0023D100220121C24801F001F900220221A7
:100BDC00BF4801F0FCF800220421BD4801F0F7F8F1
:100BEC0000220821BA4801F0F2F800221021B8487E
:100BFC0001F0EDF800222021B54801F0E8F80122BF
:100C0C004021B34801F0E3F85DE17B68012B23D16F
:100C1C0001220121AE4801F0DAF800220221AC4891
:100C2C0001F0D5F800220421A94801F0D0F80122E6
:100C3C000821A74801F0CBF801221021A44801F0AB
:100C4C00C6F801222021A24801F0C1F8012240215E
:100C5C009F4801F0BCF836E17B68022B23D10022BF
:100C6C0001219B4801F0B3F800220221984801F0C1
:100C7C00AEF801220421964801F0A9F800220821BF
:100C8C00934801F0A4F800221021914801F09FF83C
:100C9C00012220218E4801F09AF8002240218C4834
:100CAC0001F095F80FE17B68032B23D10022012181
:100CBC00874801F08CF800220221854801F087F862
:100CCC0000220421824801F082F800220821804889
:100CDC0001F07DF8012210217D4801F078F8012205
:100CEC0020217B4801F073F800224021784801F064
:100CFC006EF8E8E07B68042B23D1012201217448B3
:100D0C0001F065F800220221714801F060F8002220
:100D1C0004216F4801F05BF8012208216C4801F0B6
:100D2C0056F8012210216A4801F051F800222021C6
:100D3C00674801F04CF800224021654801F047F863
:100D4C00C1E07B68052B23D100220121604801F012
:100D5C003EF8012202215E4801F039F800220421FC
:100D6C005B4801F034F800220821594801F02FF8B3
:100D7C0001221021564801F02AF800222021544863
:100D8C0001F025F800224021514801F020F89AE0AA
:100D9C007B68062B23D1002201214D4801F017F866
:100DAC00012202214A4801F012F80022042148488D
:100DBC0001F00DF800220821454801F008F8002246
:100DCC001021434801F003F800222021404800F094
:100DDC00FEFF002240213E4800F0F9FF73E07B68E3
:100DEC00072B23D100220121394800F0F0FF00220B
:100DFC000221374800F0EBFF00220421344800F0B8
:100E0C00E6FF01220821324800F0E1FF0122102107
:100E1C002F4800F0DCFF012220212D4800F0D7FFE5
:100E2C00012240212A4800F0D2FF4CE07B68082BBD
:100E3C0023D100220121264800F0C9FF0022022103
:100E4C00234800F0C4FF00220421214800F0BFFF1A
:100E5C00002208211E4800F0BAFF002210211C4875
:100E6C0000F0B5FF00222021194800F0B0FF00224D
:100E7C004021174800F0ABFF25E07B68092B22D1FD
:100E8C0000220121124800F0A2FF0022022110488A
:100E9C0000F09DFF002204210D4800F098FF002275
:100EAC0008210B4800F093FF01221021084800F0A4
:100EBC008EFF00222021064800F089FF00224021ED
:100ECC00034800F084FF00BF0837BD4680BD00BF5B
:100EDC00000C014080B582B000AF78607B68002BBD
:100EEC0029D100228021C84800F071FF00224FF464
:100EFC008071C54800F06BFF00224FF40071C248AE
:100F0C0000F065FF00224FF48061BF4800F05FFFE6
:100F1C0000224FF40061BC4800F059FF00224FF44E
:100F2C008051B94800F053FF01224FF40051B648EC
:100F3C0000F04DFF96E17B68012B29D10122802125
:100F4C00B14800F044FF00224FF48071AE4800F02D
:100F5C003EFF00224FF40071AB4800F038FF012235
:100F6C004FF48061A84800F032FF01224FF4006179
:100F7C00A54800F02CFF01224FF48051A24800F04C
:100F8C0026FF01224FF400519F4800F020FF69E139
:100F9C007B68022B29D1002280219B4800F017FF8F
:100FAC0000224FF48071984800F011FF01224FF499
:100FBC000071954800F00BFF00224FF480619248BD
:100FCC0000F005FF00224FF400618F4800F0FFFE97
:100FDC0001224FF480518C4800F0F9FE00224FF4AE
:100FEC000051894800F0F3FE3CE17B68032B29D1CA
:100FFC0000228021844800F0EAFE00224FF4807128
:10100C00814800F0E4FE00224FF400717E4800F0AD
:10101C00DEFE00224FF480617B4800F0D8FE0122F6
:10102C004FF40061784800F0D2FE01224FF4805159
:10103C00754800F0CCFE00224FF40051724800F0CD
:10104C00C6FE0FE17B68042B29D1012280216E485A
:10105C0000F0BDFE00224FF480716B4800F0B7FE2B
:10106C0000224FF40071684800F0B1FE01224FF4E9
:10107C008061654800F0ABFE01224FF400616248CC
:10108C0000F0A5FE00224FF480515F4800F09FFE57
:10109C0000224FF400515C4800F099FEE2E07B68BE
:1010AC00052B29D100228021574800F090FE012207
:1010BC004FF48071544800F08AFE00224FF4007106
:1010CC00514800F084FE00224FF480614E4800F03D
:1010DC007EFE01224FF400614B4800F078FE0022A6
:1010EC004FF48051484800F072FE00224FF400513A
:1010FC00454800F06CFEB5E07B68062B29D1002238
:10110C008021414800F063FE01224FF480713E487B
:10111C0000F05DFE00224FF400713B4800F057FEDA
:10112C0000224FF48061384800F051FE00224FF449
:10113C000061354800F04BFE00224FF480513248DC
:10114C0000F045FE00224FF400512F4800F03FFE06
:10115C0088E07B68072B29D1002280212A4800F0E7
:10116C0036FE00224FF48071274800F030FE00223A
:10117C004FF40071244800F02AFE01224FF48061E4
:10118C00214800F024FE01224FF400611E4800F0BB
:10119C001EFE01224FF480511B4800F018FE012264
:1011AC004FF40051184800F012FE5BE07B68082BEE
:1011BC002CD100228021144800F009FE00224FF4AB
:1011CC008071114800F003FE00224FF400710E48AC
:1011DC0000F0FDFD00224FF480610B4800F0F7FD9C
:1011EC0000224FF40061084800F0F1FD00224FF49A
:1011FC008051054800F0EBFD00224FF400510248ED
:10120C0000F0E5FD2EE000BF000C01407B68092BCF
:10121C0028D100228021154800F0D9FD00224FF47E
:10122C008071124800F0D3FD00224FF400710F487A
:10123C0000F0CDFD00224FF480610C4800F0C7FD9A
:10124C0001224FF40061094800F0C1FD00224FF467
:10125C008051064800F0BBFD00224FF400510348BA
:10126C0000F0B5FD00BF0837BD4680BD000C014045
:10127C0080B500AF00F0AAFA00F00EF800F094F878
:10128C0000F046F8034801F00BFAFFF76DF8FFF792
:10129C00ADFAFCE7A800002080B590B000AF07F1D4
:1012AC00180328220021184601F0B2FD3B1D002234
:1012BC001A605A609A60DA601A610223BB610123DA
:1012CC00BB621023FB6200237B6307F118031846F3
:1012DC0000F0AEFD0346002B01D000F0E3F80F2325
:1012EC007B600023BB600023FB6000233B61002379
:1012FC007B613B1D0021184601F01AF80346002BB8
:10130C0001D000F0CFF800BF4037BD4680BD0000D3
:10131C0080B586B000AF07F1080300221A605A604E
:10132C009A60DA603B4600221A605A601D4B4FF0FF
:10133C0080421A601B4B41F63F725A60194B0022D7
:10134C009A60184B0922DA60164B00221A61154B71
:10135C0000229A61134801F053F90346002B01D087
:10136C0000F0A0F84FF48053BB6007F10803194656
:10137C000C4801F0E9FA0346002B01D000F092F87A
:10138C0000233B6000237B603B461946054801F077
:10139C00B1FC0346002B01D000F084F800BF1837D5
:1013AC00BD4680BDA800002080B588B000AF07F115
:1013BC00100300221A605A609A60DA602F4B9B6906
:1013CC002E4A43F0100393612C4B9B6903F01003DE
:1013DC00FB60FB68294B9B69284A43F0040393612B
:1013EC00264B9B6903F00403BB60BB68234B9B69D2
:1013FC00224A43F008039361204B9B6903F00803D6
:10140C007B607B68002240F2FE711D4800F0DFFC1F
:10141C00002243F6FF711B4800F0D9FC4FF46043E7
:10142C003B6100237B610123BB6107F1100319466B
:10143C00154800F03BFB40F2FE733B6101237B61DE
:10144C000023BB610223FB6107F1100319460C4812
:10145C0000F02CFB43F6FF733B6101237B610023FF
:10146C00BB610223FB6107F110031946054800F02C
:10147C001DFB00BF2037BD4680BD00BF00100240E1
:10148C0000080140000C01400010014080B582B002
:10149C0000AF786000F00AF9FEF752FE00BF083783
:1014AC00BD4680BD80B400AF72B600BFFEE7000041
:1014BC0080B485B000AF154B9B69144A43F001030F
:1014CC009361124B9B6903F00103BB60BB680F4B2C
:1014DC00DB690E4A43F08053D3610C4BDB6903F09C
:1014EC0080537B607B680A4B5B68FB60FB6823F076
:1014FC00E063FB60FB6843F08063FB60044AFB68BD
:10150C00536000BF1437BD4680BC704700100240CA
:10151C000000014080B584B000AF78607B681B6828
:10152C00B3F1804F13D10C4BDB690B4A43F0010331
:10153C00D361094BDB6903F00103FB60FB680022FC
:10154C0000211C2000F07BFA1C2000F094FA00BF54
:10155C001037BD4680BD00BF0010024080B400AF04
:10156C00FEE780B400AFFEE780B400AFFEE780B4C6
:10157C0000AFFEE780B400AFFEE780B400AF00BF61
:10158C00BD4680BC704780B400AF00BFBD4680BC78
:10159C00704780B400AF00BFBD4680BC704780B5BB
:1015AC0000AF00F059F900BF80BD000080B500AF5E
:1015BC00024801F0C1F800BF80BD00BFA8000020A8
:1015CC0080B400AF00BFBD4680BC704780B483B010
:1015DC0000AF78607B68084A82FB03129210DB171D
:1015EC00D31A064A1360064B00221A6000BF0C3750
:1015FC00BD4680BC704700BF6766666678000020F9
:10160C007400002080B483B000AF78607B68084A17
:10161C0082FB03129210DB17D31A064A1360064B97
:10162C0000221A6000BF0C37BD4680BC704700BF5B
:10163C0067666666700000206C00002080B483B082
:10164C0000AF78607B68084A82FB03129210DB17AC
:10165C00D31A064A1360064B00221A6000BF0C37DF
:10166C00BD4680BC704700BF676666668000002080
:10167C007C00002080B483B000AF78607B68084A9F
:10168C0082FB03129210DB17D31A064A1360064B27
:10169C0000221A6000BF0C37BD4680BC704700BFEB
:1016AC0067666666840000208800002080B400AF66
:1016BC00294B1B68002B0BDD274B1B68013B264A73
:1016CC001360254B1B68002B02DC244B01221A6093
:1016DC00234B1B68002B0BDD214B1B68013B204A65
:1016EC0013601F4B1B68002B02DC1E4B01221A607F
:1016FC001D4B1B68002B0BDD1B4B1B68013B1A4A57
:10170C001360194B1B68002B02DC184B01221A606A
:10171C00174B1B68002B0BDD154B1B68013B144A48
:10172C001360134B1B68002B02DC124B01221A6056
:10173C00114B1B68002B0BDD0F4B1B68013B0E4A3A
:10174C0013600D4B1B68002B02DC0C4B01221A6042
:10175C0000BFBD4680BC7047700000206C000020AC
:10176C00800000207C0000208400002088000020E5
:10177C0078000020740000208C00002090000020D5
:10178C000C480D490D4A002302E0D458C4500433D0
:10179C00C4188C42F9D30A4A0A4C002301E01360A6
:1017AC000432A242FBD3FFF70BFF01F00DFBFFF756
:1017BC005FFD704700000020300000206C2E0008F8
:1017CC0030000020F4000020FEE7000080B500AFE0
:1017DC00084B1B68074A43F010031360032000F00A
:1017EC0023F90F2000F008F8FFF762FE00231846DB
:1017FC0080BD00BF0020024080B582B000AF786091
:10180C00124B1A68124B1B7819464FF47A73B3FBC0
:10181C00F1F3B2FBF3F3184600F03BF90346002B4F
:10182C0001D001230EE07B680F2B0AD800227968C7
:10183C004FF0FF3000F003F9064A7B681360002379
:10184C0000E0012318460837BD4680BD2400002067
:10185C002C0000202800002080B400AF054B1B7822
:10186C001A46054B1B681344034A136000BFBD4660
:10187C0080BC70472C000020F000002080B400AF2A
:10188C00024B1B681846BD4680BC7047F000002018
:10189C0080B485B000AF78607B6803F00703FB6011
:1018AC000C4BDB68BB60BA684FF6FF031340BB60A0
:1018BC00FB681A02BB68134343F0BF6343F4003365
:1018CC00BB60044ABB68D36000BF1437BD4680BC04
:1018DC00704700BF00ED00E080B400AF044BDB6844
:1018EC001B0A03F007031846BD4680BC704700BFB7
:1018FC0000ED00E080B483B000AF0346FB7197F9B4
:10190C000730002B0BDBFB7903F01F02064997F91C
:10191C0007305B09012000FA02F241F8232000BFD6
:10192C000C37BD4680BC704700E100E080B483B04A
:10193C0000AF03463960FB7197F90730002B0ADBC7
:10194C003B68DAB20C4997F907301201D2B20B445A
:10195C0083F800230AE03B68DAB20849FB7903F00C
:10196C000F03043B1201D2B20B441A7600BF0C37A2
:10197C00BD4680BC704700BF00E100E000ED00E018
:10198C0080B489B000AFF860B9607A60FB6803F08E
:10199C000703FB61FB69C3F10703042B28BF042376
:1019AC00BB61FB690433062B02D9FB69033B00E0E6
:1019BC0000237B614FF0FF32BB6902FA03F3DA4379
:1019CC00BB681A407B699A404FF0FF317B6901FA82
:1019DC0003F3D9437B680B40134318462437BD46A9
:1019EC0080BC704780B582B000AF78607B68013BEB
:1019FC00B3F1807F01D301230FE00A4A7B68013BDE
:101A0C0053600F214FF0FF30FFF790FF054B002282
:101A1C009A60044B07221A60002318460837BD460B
:101A2C0080BD00BF10E000E080B582B000AF7860F0
:101A3C007868FFF72DFF00BF0837BD4680BD80B525
:101A4C0086B000AF0346B9607A60FB7300237B61FC
:101A5C00FFF742FF78617A68B9687869FFF790FF01
:101A6C00024697F90F3011461846FFF75FFF00BF8B
:101A7C001837BD4680BD80B582B000AF0346FB7100
:101A8C0097F907301846FFF735FF00BF0837BD46FA
:101A9C0080BD80B582B000AF78607868FFF7A2FF98
:101AAC00034618460837BD4680BD000080B48BB095
:101ABC0000AF7860396000237B6200233B6248E111
:101ACC0001227B6A02FA03F3FB613B681B68FA692B
:101ADC001340BB61BA69FB699A4240F037813B689D
:101AEC005B68A34A93425ED0A14A934275D8A14A3F
:101AFC00934258D09F4A93426FD89F4A934252D0F8
:101B0C009D4A934269D89D4A93424CD09B4A93423A
:101B1C0063D89B4A934246D0994A93425DD8122B84
:101B2C002AD8122B59D801A252F823F0B31B000863
:101B3C008D1B00089F1B0008E11B0008E71B000819
:101B4C00E71B0008E71B0008E71B0008E71B000861
:101B5C00E71B0008E71B0008E71B0008E71B000851
:101B6C00E71B0008E71B0008E71B0008E71B000841
:101B7C00951B0008A91B0008824A934213D02CE045
:101B8C003B68DB683B6229E03B68DB6804333B6203
:101B9C0024E03B68DB6808333B621FE03B68DB6892
:101BAC000C333B621AE03B689B68002B02D1042388
:101BBC003B6213E03B689B68012B05D108233B6219
:101BCC007B68FA691A6109E008233B627B68FA6951
:101BDC005A6103E000233B6200E000BFBB69FF2BAE
:101BEC0001D87B6801E07B6804337B61BB69FF2B08
:101BFC0002D87B6A9B0002E07B6A083B9B003B613E
:101C0C007B691A680F213B6901FA03F3DB431A4025
:101C1C00396A3B6901FA03F31A437B691A603B6822
:101C2C005B6803F08053002B00F09080564B9B694F
:101C3C00554A43F001039361534B9B6903F0010335
:101C4C00BB60BB68514A7B6A9B08023352F8233055
:101C5C00FB607B6A03F003039B000F2202FA03F381
:101C6C00DB43FA681340FB607B68494A93420DD012
:101C7C007B68484A934207D07B68474A934201D11C
:101C8C00022304E0032302E0012300E000237A6A2C
:101C9C0002F0030292009340FA681343FB603B4945
:101CAC007B6A9B080233FA6841F823203B685B6827
:101CBC0003F48033002B06D0384B1A683749BB69C4
:101CCC0013430B6006E0354B1A68BB69DB433349A1
:101CDC0013400B603B685B6803F40033002B06D0A9
:101CEC002E4B5A682D49BB6913434B6006E02B4BB6
:101CFC005A68BB69DB43294913404B603B685B68FE
:101D0C0003F48013002B06D0244B9A682349BB693B
:101D1C0013438B6006E0214B9A68BB69DB431F4978
:101D2C0013408B603B685B6803F40013002B06D0F8
:101D3C001A4BDA681949BB691343CB6006E0174BA1
:101D4C00DA68BB69DB4315491340CB607B6A01330E
:101D5C007B623B681A687B6A22FA03F3002B7FF4E0
:101D6C00AFAE00BF00BF2C37BD4680BC704700BF74
:101D7C000000321000003110000022100000211071
:101D8C000000121000001110001002400000014071
:101D9C0000080140000C014000100140000401400B
:101DAC0080B485B000AF78600B467B807B689A6806
:101DBC007B881340002B02D00123FB7301E000232E
:101DCC00FB73FB7B18461437BD4680BC704780B450
:101DDC0083B000AF78600B467B8013467B707B78BA
:101DEC00002B03D07A887B681A6103E07B881A0485
:101DFC007B681A6100BF0C37BD4680BC704780B44D
:101E0C0085B000AF78600B467B807B68DB68FB603D
:101E1C007A88FB6813401A04FB68D9437B880B4013
:101E2C001A437B681A6100BF1437BD4680BC7047EB
:101E3C0080B586B000AF78607B68002B01D10123A0
:101E4C006CE27B681B6803F00103002B00F08780B9
:101E5C00924B5B6803F00C03042B0CD08F4B5B682C
:101E6C0003F00C03082B12D18C4B5B6803F480330A
:101E7C00B3F5803F0BD1894B1B6803F40033002B67
:101E8C006CD07B685B68002B68D1012346E27B68D1
:101E9C005B68B3F5803F06D1804B1B687F4A43F4E7
:101EAC00803313602EE07B685B68002B0CD17B4B7E
:101EBC001B687A4A23F480331360784B1B68774A8B
:101ECC0023F4802313601DE07B685B68B3F5A02FBF
:101EDC000CD1724B1B68714A43F4802313606F4B17
:101EEC001B686E4A43F4803313600BE06B4B1B682A
:101EFC006A4A23F480331360684B1B68674A23F4E7
:101F0C00802313607B685B68002B13D0FFF7B6FC53
:101F1C00386108E0FFF7B2FC02463B69D31A642B28
:101F2C0001D90323FAE15D4B1B6803F40033002B4A
:101F3C00F0D014E0FFF7A2FC386108E0FFF79EFC3C
:101F4C0002463B69D31A642B01D90323E6E1534BB8
:101F5C001B6803F40033002BF0D100E000BF7B685A
:101F6C001B6803F00203002B63D04C4B5B6803F03F
:101F7C000C03002B0BD0494B5B6803F00C03082BB4
:101F8C001CD1464B5B6803F48033002B16D1434BBA
:101F9C001B6803F00203002B05D07B681B69012B27
:101FAC0001D00123BAE13D4B1B6823F0F8027B689A
:101FBC005B69DB00394913430B603AE07B681B69B2
:101FCC00002B20D0364B01221A60FFF757FC3861EA
:101FDC0008E0FFF753FC02463B69D31A022B01D9E8
:101FEC0003239BE12D4B1B6803F00203002BF0D065
:101FFC002A4B1B6823F0F8027B685B69DB002749DE
:10200C0013430B6015E0264B00221A60FFF736FCD9
:10201C00386108E0FFF732FC02463B69D31A022B09
:10202C0001D903237AE11D4B1B6803F00203002B3B
:10203C00F0D17B681B6803F00803002B3AD07B6857
:10204C009B69002B19D0174B01221A60FFF716FC65
:10205C00386108E0FFF712FC02463B69D31A022BE9
:10206C0001D903235AE10D4B5B6A03F00203002BE9
:10207C00F0D0012000F0A6FA1CE00A4B00221A60F6
:10208C00FFF7FCFB38610FE0FFF7F8FB02463B69FA
:10209C00D31A022B08D9032340E100BF00100240E1
:1020AC0000004242800442429E4B5B6A03F00203F2
:1020BC00002BE9D17B681B6803F00403002B00F0B4
:1020CC00A6800023FB75974BDB6903F08053002B34
:1020DC000DD1944BDB69934A43F08053D361914B00
:1020EC00DB6903F08053BB60BB680123FB758E4B2F
:1020FC001B6803F48073002B18D18B4B1B688A4A26
:10210C0043F480731360FFF7B9FB386108E0FFF705
:10211C00B5FB02463B69D31A642B01D90323FDE0BE
:10212C00814B1B6803F48073002BF0D07B68DB6859
:10213C00012B06D17B4B1B6A7A4A43F001031362D5
:10214C002DE07B68DB68002B0CD1764B1B6A754A43
:10215C0023F001031362734B1B6A724A23F00403CE
:10216C0013621CE07B68DB68052B0CD16D4B1B6A82
:10217C006C4A43F0040313626A4B1B6A694A43F0CE
:10218C00010313620BE0674B1B6A664A23F00103E1
:10219C001362644B1B6A634A23F0040313627B686B
:1021AC00DB68002B15D0FFF769FB38610AE0FFF7FD
:1021BC0065FB02463B69D31A41F28832934201D93E
:1021CC000323ABE0574B1B6A03F00203002BEED04A
:1021DC0014E0FFF753FB38610AE0FFF74FFB0246B0
:1021EC003B69D31A41F28832934201D9032395E01B
:1021FC004C4B1B6A03F00203002BEED1FB7D012B31
:10220C0005D1484BDB69474A23F08053D3617B6887
:10221C00DB69002B00F08180424B5B6803F00C0300
:10222C00082B61D07B68DB69022B46D13F4B002227
:10223C001A60FFF723FB386108E0FFF71FFB02462B
:10224C003B69D31A022B01D9032367E0354B1B687A
:10225C0003F00073002BF0D17B681B6AB3F5803F51
:10226C0008D1304B5B6823F400327B689B682D49A6
:10227C0013434B602B4B5B6823F474127B68196A15
:10228C007B685B6A0B43274913434B60274B012246
:10229C001A60FFF7F3FA386108E0FFF7EFFA02462D
:1022AC003B69D31A022B01D9032337E01D4B1B6862
:1022BC0003F00073002BF0D02FE01C4B00221A60AF
:1022CC00FFF7DCFA386108E0FFF7D8FA02463B6901
:1022DC00D31A022B01D9032320E0124B1B6803F005
:1022EC000073002BF0D118E07B68DB69012B01D166
:1022FC00012313E00B4B5B68FB60FB6803F480323B
:10230C007B681B6A9A4206D1FB6803F470127B68E7
:10231C005B6A9A4201D0012300E00023184618376B
:10232C00BD4680BD0010024000700040600042427B
:10233C0080B584B000AF786039607B68002B01D128
:10234C000123D0E06A4B1B6803F007033A689A42FA
:10235C0010D9674B1B6823F0070265493B68134390
:10236C000B60634B1B6803F007033A689A4201D079
:10237C000123B8E07B681B6803F00203002B20D01C
:10238C007B681B6803F00403002B05D0594B5B687A
:10239C00584A43F4E06353607B681B6803F00803FE
:1023AC00002B05D0534B5B68524A43F46053536087
:1023BC00504B5B6823F0F0027B689B684D491343DC
:1023CC004B607B681B6803F00103002B40D07B68DB
:1023DC005B68012B07D1474B1B6803F40033002BC0
:1023EC0015D101237FE07B685B68022B07D1414B41
:1023FC001B6803F00073002B09D1012373E03D4BE4
:10240C001B6803F00203002B01D101236BE0394B55
:10241C005B6823F003027B685B68364913434B60AF
:10242C00FFF72CFAF8600AE0FFF728FA0246FB687F
:10243C00D31A41F28832934201D9032353E02D4B36
:10244C005B6803F00C027B685B689B009A42EBD1E3
:10245C00274B1B6803F007033A689A4210D2244BAF
:10246C001B6823F0070222493B6813430B60204B87
:10247C001B6803F007033A689A4201D0012332E04B
:10248C007B681B6803F00403002B08D0194B5B68B6
:10249C0023F4E0627B68DB68164913434B607B686E
:1024AC001B6803F00803002B09D0124B5B6823F464
:1024BC0060527B681B69DB000E4913434B6000F0D4
:1024CC0021F802460B4B5B681B0903F00F030A490A
:1024DC00CB5C22FA03F3094A1360094B1B681846BC
:1024EC00FFF78AF9002318461037BD4680BD00BFA0
:1024FC000020024000100240542E0008240000204E
:10250C002800002090B48AB000AF2A4B3C1D0FCBA2
:10251C0084E80F0040F201233B800023FB61002381
:10252C00BB6100237B6200237B6100233B62224B57
:10253C005B68FB61FB6903F00C03042B02D0082BD6
:10254C0003D02DE01D4B3B622DE0FB699B0C03F08F
:10255C000F0307F12802134413F8243C7B61FB6939
:10256C0003F48033002B13D0134B5B685B0C03F02C
:10257C00010307F12802134413F8283CBB617B6963
:10258C000E4A02FB03F2BB69B2FBF3F37B6204E07D
:10259C007B690B4A02FB03F37B627B6A3B6202E0C2
:1025AC00064B3B6200BF3B6A18462837BD4690BCC1
:1025BC00704700BF442E00080010024000127A0041
:1025CC0000093D0080B485B000AF78600A4B1B68F1
:1025DC000A4AA2FB03235B0A7A6802FB03F3FB6043
:1025EC0000BFFB685A1EFA60002BF9D100BF00BF78
:1025FC001437BD4680BC704724000020D34D6210B8
:10260C0080B582B000AF78607B68002B01D10123CC
:10261C0041E07B6893F83D30DBB2002B06D17B6840
:10262C00002283F83C207868FEF774FF7B68022256
:10263C0083F83D207B681A687B6804331946104682
:10264C0000F06AFA7B68012283F846207B6801223D
:10265C0083F83E207B68012283F83F207B680122AF
:10266C0083F840207B68012283F841207B6801229B
:10267C0083F842207B68012283F843207B68012287
:10268C0083F844207B68012283F845207B68012273
:10269C0083F83D20002318460837BD4680BD000056
:1026AC0080B485B000AF78607B6893F83D30DBB2C6
:1026BC00012B01D0012335E07B68022283F83D20F9
:1026CC007B681B68DA687B681B6842F00102DA6081
:1026DC007B681B68164A934209D07B681B68B3F170
:1026EC00804F04D07B681B68124A934211D17B68DF
:1026FC001B689B6803F00703FB60FB68062B10D07C
:10270C007B681B681A687B681B6842F001021A60C0
:10271C0007E07B681B681A687B681B6842F0010243
:10272C001A60002318461437BD4680BC704700BFA2
:10273C00002C01400004004080B582B000AF7860EE
:10274C007B681B681B6903F00203022B22D17B6898
:10275C001B68DB6803F00203022B1BD17B681B6830
:10276C006FF002021A617B6801221A777B681B6882
:10277C009B6903F00303002B03D0786800F0B1F9D8
:10278C0005E0786800F0A4F9786800F0B3F97B688C
:10279C0000221A777B681B681B6903F00403042B67
:1027AC0022D17B681B68DB6803F00403042B1BD16C
:1027BC007B681B686FF004021A617B6802221A772F
:1027CC007B681B689B6903F44073002B03D078680B
:1027DC0000F087F905E0786800F07AF9786800F085
:1027EC0089F97B6800221A777B681B681B6903F0E8
:1027FC000803082B22D17B681B68DB6803F00803F5
:10280C00082B1BD17B681B686FF008021A617B6870
:10281C0004221A777B681B68DB6903F00303002B27
:10282C0003D0786800F05DF905E0786800F050F9A5
:10283C00786800F05FF97B6800221A777B681B6868
:10284C001B6903F01003102B22D17B681B68DB681B
:10285C0003F01003102B1BD17B681B686FF0100268
:10286C001A617B6808221A777B681B68DB6903F4A2
:10287C004073002B03D0786800F033F905E07868DA
:10288C0000F026F9786800F035F97B6800221A7799
:10289C007B681B681B6903F00103012B0ED17B685D
:1028AC001B68DB6803F00103012B07D17B681B68F5
:1028BC006FF001021A617868FEF7E8FD7B681B680F
:1028CC001B6903F08003802B0ED17B681B68DB68CF
:1028DC0003F08003802B07D17B681B686FF08002AC
:1028EC001A61786800F067FA7B681B681B6903F053
:1028FC004003402B0ED17B681B68DB6803F0400360
:10290C00402B07D17B681B686FF040021A61786816
:10291C0000F0F9F87B681B681B6903F02003202B7F
:10292C000ED17B681B68DB6803F02003202B07D1DA
:10293C007B681B686FF020021A61786800F032FA2D
:10294C0000BF0837BD4680BD80B584B000AF78604D
:10295C0039607B6893F83C30012B01D10223B3E042
:10296C007B68012283F83C207B68022283F83D209F
:10297C007B681B689B68FB60FB6823F07703FB603C
:10298C00FB6823F47F43FB607B681B68FA689A60E2
:10299C003B681B68B3F5005F3ED0B3F5005F00F2F7
:1029AC008780B3F5805F00F08580B3F5805F7FD8BA
:1029BC00702B1AD0702B7BD8602B50D0602B77D813
:1029CC00502B3CD0502B73D8402B58D0402B6FD869
:1029DC00302B64D0302B6BD8202B60D0202B67D8B9
:1029EC00002B5CD0102B5AD062E07B6818683B68D7
:1029FC0099683B685A683B68DB6800F05CF97B6857
:102A0C001B689B68FB60FB6843F07703FB607B688B
:102A1C001B68FA689A604EE07B6818683B68996896
:102A2C003B685A683B68DB6800F045F97B681B68BB
:102A3C009A687B681B6842F480429A603BE07B6832
:102A4C0018683B6859683B68DB681A4600F0BCF8AC
:102A5C007B681B685021184600F013F92BE07B684B
:102A6C0018683B6859683B68DB681A4600F0DAF86E
:102A7C007B681B686021184600F003F91BE07B683B
:102A8C0018683B6859683B68DB681A4600F09CF88C
:102A9C007B681B684021184600F0F3F80BE07B685C
:102AAC001A683B681B681946104600F0EAF802E009
:102ABC0000BF00E000BF7B68012283F83D207B68EB
:102ACC00002283F83C20002318461037BD4680BDF9
:102ADC0080B483B000AF786000BF0C37BD4680BCBB
:102AEC00704780B483B000AF786000BF0C37BD4630
:102AFC0080BC704780B483B000AF786000BF0C37E7
:102B0C00BD4680BC704780B483B000AF786000BF16
:102B1C000C37BD4680BC704780B485B000AF786080
:102B2C0039607B681B68FB607B68254A934207D041
:102B3C007B68B3F1804F03D07B68224A934208D163
:102B4C00FB6823F07003FB603B685B68FA68134317
:102B5C00FB607B681A4A934207D07B68B3F1804FC5
:102B6C0003D07B68174A934208D1FB6823F4407367
:102B7C00FB603B68DB68FA681343FB60FB6823F07F
:102B8C0080023B685B691343FB607B68FA681A60E0
:102B9C003B689A687B68DA623B681A687B689A6261
:102BAC007B68074A934203D13B681A697B681A63B6
:102BBC007B6801225A6100BF1437BD4680BC704748
:102BCC00002C01400004004080B487B000AFF860D6
:102BDC00B9607A60FB681B6A7B61FB681B6A23F037
:102BEC000102FB681A62FB689B693B613B6923F03D
:102BFC00F0033B617B681B013A6913433B617B69C2
:102C0C0023F00A037B617A69BB6813437B61FB6821
:102C1C003A699A61FB687A691A6200BF1C37BD4633
:102C2C0080BC704780B487B000AFF860B9607A6040
:102C3C00FB681B6A23F01002FB681A62FB689B6935
:102C4C007B61FB681B6A3B617B6923F470437B618E
:102C5C007B681B037A6913437B613B6923F0A003F8
:102C6C003B61BB681B013A6913433B61FB687A69A2
:102C7C009A61FB683A691A6200BF1C37BD4680BC7A
:102C8C00704780B485B000AF786039607B689B6812
:102C9C00FB60FB6823F07003FB603A68FB6813432E
:102CAC0043F00703FB607B68FA689A6000BF143737
:102CBC00BD4680BC704780B487B000AFF860B96087
:102CCC007A603B60FB689B687B617B6923F47F4384
:102CDC007B613B681A027B681A43BB6813437A69B1
:102CEC0013437B61FB687A699A6000BF1C37BD4651
:102CFC0080BC704780B485B000AF786039607B6869
:102D0C0093F83C30012B01D1022341E07B68012276
:102D1C0083F83C207B68022283F83D207B681B688B
:102D2C005B68FB607B681B689B68BB60FB6823F07F
:102D3C007003FB603B681B68FA681343FB607B689D
:102D4C001B68FA685A607B681B68144A934209D066
:102D5C007B681B68B3F1804F04D07B681B68104AFA
:102D6C0093420CD1BB6823F08003BB603B685B686B
:102D7C00BA681343BB607B681B68BA689A607B684F
:102D8C00012283F83D207B68002283F83C2000233D
:102D9C0018461437BD4680BC704700BF002C01405C
:102DAC000004004080B483B000AF786000BF0C37E3
:102DBC00BD4680BC704780B483B000AF786000BF64
:102DCC000C37BD4680BC704770B500260C4D0D4CC1
:102DDC00641BA410A64209D100F022F800260A4D6B
:102DEC000A4C641BA410A64205D170BD55F8043BD7
:102DFC0098470136EEE755F8043B98470136F2E761
:102E0C00642E0008642E0008642E0008682E00084A
:102E1C0003460244934200D1704703F8011BF9E7C3
:102E2C00F8B500BFF8BC08BC9E467047F8B500BFAB
:082E3C00F8BC08BC9E4670477B
:102E440002030405060708090A0B0C0D0E0F1010E7
:102E54000000000000000000010203040607080946
:042E64003101000830
:042E68000D01000850
:102E6C000101010001010100002000400080000070
:102E7C000010014000100140001001400101010050
:102E8C00050203000024F400100000000100000003
:040000050800178D4B
:00000001FF
